:100000003BEF03F00000000000EF00F000000000F4
:0A0010000000000000000000F3D71C
:06001C00000000001200CC
:100022000F0E0C6E470E0D6E0D2EFED70C2EFCD74A
:06003200000000001200B6
:0A003800210E0D6E0D2EFED71200F2
:100042000001B3BF02D0839E01D0838EB3BD02D024
:10005200839C01D0838CB3BB02D0839A01D0838A64
:10006200B3B902D0839801D083888CB102D0848442
:1000720001D084948482D1DF8492B3B702D0839E6C
:1000820001D0838EB3B502D0839C01D0838CB3B3ED
:1000920002D0839A01D0838AB3B102D0839801D06F
:1000A20083888CB102D0848401D084948482B5DFA9
:0E00B20084928CA102D0B4DF01D0BDDF120019
:1000C0000000000000000000000000000000000030
:0200D00012001C
:0E00D20000018C91B0C0B3F0B3DF8C8112003E
:1000E0000001B26B829694888288B16B080EB15D74
:1000F00017E28286E5DFB1510708006E026A82B816
:10010000022A00C001F002C000F0015004E00036F5
:100110000090FF0FFBD70050B2138296B12BE6D7A9
:100120009498B05302E0829801D08288C9DF828619
:0A013000C7DF8296B2C000F0120093
:0C013A0082868298C0DF8288BEDF12003F
:0C01460082868288BADF8298B8DF12003F
:1001520082960001B16B080EB15D1CE2B151070835
:10016200006E016A000E015A00C001F0B0C000F03A
:10017200015004E00032009EFF0FFBD7010E001673
:1001820000B002D0829801D08288828698DF82965F
:10019200B12BE1D7828893DF828691DF82961200AB
:1001A200969296949598959A959C959E849284940D
:1001B200839E839C839A839833DF32DF31DF838A85
:1001C200838884822ADF84922BDF848226DF8492D2
:1001D20027DF848222DF849223DF839884821DDFDB
:1001E20084921EDF848219DF8492839A838E8482B2
:1001F20014DF849215DF839E838884820EDF8492CB
:10020200839884820ADF84920BDF848206DF8492E1
:100212008388848202DF849203DF83988482FDDEF6
:100222008492838E838C838A83888482F6DE84928E
:08023200F7DE00018C811200CF
:10023A0010D0800E0001AB6F1AD0C00EAB6F17D072
:10024A00940EAB6F14D0D40EAB6F11D0800EAB6F7F
:10025A000ED00001AB51010AECE0AB51020AEDE00D
:10026A00AB51030AEDE0AB51040AEDE0EFD7AC0560
:10027A00006EAB51002600C0ABF000C0B3F0DCDE6C
:10028A008C91AF6BAF51AD25E96E000EAE21EA6ECF
:10029A00EE520BE0AF51AD25E96E000EAE21EA6ECB
:0E02AA00EECFB0F011DFAF2BEDD78C8112003C
:0E02B8000F0E0001AB15006E300E0026120076
:1002C600F00E0001AB15026E02C000F00032009E77
:1002D6000032009E0032009E0032009E300E002644
:0202E600120004
:1002E800000E0001AB15036EAC51010B046E04C087
:1002F80000F0016A00C0AEF0FF0EAB15AF6F1FDF54
:10030800AE5304E0A20EB06F20DF03D0A00EB06F92
:100318001CDFAFC0B0F019DF12DFAE5304E0A30E4C
:10032800B06F13DF03D0A10EB06F0FDF010EB06FF7
:0E033800D3DE00C0ADF0FDDEADC000F012005F
:100346000900F5CFE6FF0006FBE10106F9E1120020
:10035600956A836A966A846A21DF010EB36F6EDE40
:100366000C0EB36F6BDE010EAB6F020EAC6F300E70
:10037600AD6F000EAE6F5EDF020EAB6F010EAC6F9F
:10038600150EAD6F000EAE6F55DF1F0E0B6E710EA4
:100396000C6E1E0E0D6E0D2EFED70C2EFCD70B2EE0
:0C03A600FAD70000010EB36F49DE120010
:1003B2000001A56BA551A325E96E000EA421EA6EEA
:1003C200EE520BE0A551A325E96E000EA421EA6EC0
:0C03D200EECFB0F07DDEA52BEDD71200C1
:1003DE00A5C0A6F0000E0001A76F000EA315036EB8
:1003EE00A451010B046E04C000F0016A00C0A8F015
:1003FE00FF0EA315A96FAA6B9FDEA85304E0A20EF1
:10040E00B06FA0DE03D0A00EB06F9CDEA9C0B0F01E
:10041E0099DEA6C0B0F096DE89DEAA2BA3C0ABF0A3
:10042E00A4C0ACF05ADF000EA71902E10050A619C5
:0C043E0004E00A0EAA5D01E2DFD7120004
:08044A0094988286828812005A
:1004520079DED00E0001B06F7BDEB06B79DE72DE2A
:10046200D10EB06F75DE010EB06F39DE7F0E001453
:10047200A76F050EA525E16E000EA621E26E3A0ECB
:10048200E66E060EA525A86F000EA621A96FA7C0CD
:10049200ABF018DFA8C0E1FFA9C0E2FF00C0E6FF91
:1004A200070EA525A86F000EA621A96FA7C0ABF065
:1004B20002DFA8C0E1FFA9C0E2FF00C0E6FF080E0C
:1004C200A525E16E000EA621E26EE66A010EB06F6E
:1004D20006DE7F0E0014A76F020EA525E16E000E48
:1004E200A621E26E3A0EE66E030EA525A86F000E57
:1004F200A621A96FA7C0ABF0E5DEA8C0E1FFA9C0A5
:10050200E2FF00C0E6FF040EA525A86F000EA6219B
:10051200A96FA7C0ABF0CFDEA8C0E1FFA9C0E2FF80
:1005220000C0E6FF010EB06FDADD3F0E001600C01C
:10053200A7F0A5C0A8F0A6C0A9F000C0ABF0C2DE2B
:10054200A8C0E1FFA9C0E2FF00C0E6FF010EA52599
:10055200A86F000EA621A96FA7C0ABF0ACDEA8C0A1
:10056200E1FFA9C0E2FF00C0E6FF010EB06FB7DDF8
:10057200010EB06FB4DD3F0E001600C0A7F0A3C09D
:10058200A8F0A4C0A9F000C0ABF09CDEA8C0E1FFB7
:10059200A9C0E2FF00C0E6FF010EA325A86F000E6E
:1005A200A421A96FA7C0ABF086DEA8C0E1FFA9C055
:1005B200E2FF00C0E6FF010EB06F91DD1F0E0014D6
:1005C200A76F020EA325E16E000EA421E26E2F0E8C
:1005D200E66E030EA325A86F000EA421A96FA7C083
:1005E200ABF070DEA8C0E1FFA9C0E2FF00C0E6FFE9
:1005F200040EA325A86F000EA421A96FA7C0ABF01B
:100602005ADEA8C0E1FFA9C0E2FF00C0E6FFB06B5E
:1006120066DD00C0A7F0050EA325E16E000EA42141
:10062200E26E2F0EE66E060EA325A86F000EA42121
:10063200A96FA7C0ABF046DEA8C0E1FFA9C0E2FFE8
:1006420000C0E6FF070EA325A86F000EA421A96F24
:10065200A7C0ABF030DEA8C0E1FFA9C0E2FF00C036
:10066200E6FF080EA325E16E000EA421E26EE66A03
:0406720063DD120032
:1006760040EC04F0936A946A956A966A69DEE2DE53
:10068600010EB36FDBDC010EAB6F010EAC6F730EA8
:10069600AD6F000EAE6FCEDDC00EB36FCFDC970E22
:1006A600A36F000EA46F8D0EA56F000EA66FCEDE93
:1006B600970EA36F000EA46F79DE150E0B6E4B0E10
:1006C6000C6EBE0E0D6E0D2EFED70C2EFCD70B2E0D
:1006D600FAD70000A16B140EA15D21E2970EA36F5D
:1006E600000EA46F8D0EA56F000EA66FAFDEC00EB6
:1006F600B36FA4DC8D0EA36F000EA46F57DE060E3B
:100706000B6E130E0C6EAD0E0D6E0D2EFED70C2E4F
:10071600FCD70B2EFAD700000000A12BDCD7010E68
:10072600B36F8CDC800EB36F89DC7C0EA36F000E7A
:10073600A46F3CDE0A0EAB6F000EAC6FD2DD00C0BC
:10074600A2F000C0A3F0000EA46F30DE0A0EA36F65
:10075600000EA46FA50EA56F3FDE0A0EA36F000E56
:10076600A46F5A0EA56F38DE0A0EAB6F000EAC6F83
:10077600B8DD00C0A1F00A0EA36F000EA46FA2C0E0
:10078600A5F02ADE010EB36F59DC800EB36F56DC7E
:10079600620EA36F000EA46F09DEC00EB36F4EDCAF
:1007A600A1515A0A06E1260EA36F000EA46FFEDDC4
:1007B60005D0570EA36F000EA46FF8DD0B0E0B6E5F
:1007C600260E0C6E5D0E0D6E0D2EFED70C2EFCD772
:1007D6000B2EFAD700000000010EB36F2FDC800E3F
:1007E600B36F2CDC4C0EA36F000EA46FDFDDC00EC2
:1007F600B36F24DC3F0EA36F000EA46FD7DDFFD7C7
:02080600FFD71A
:1008800010EE15F0770E006E010E016E080EF66E7A
:0E089000080EF76E000EF86EA3EC01F01200D9
:1008080045532046696E616C2050726F6A65637447
:0108180000DF
:0A081900202020202020204F4B005B
:0F082300544B48202620436F76656E747279001F
:0D0832002020205072657373205253540033
:0B083F00202020202020446F6E650068
:0B084A002020202020204552524F00AB
:10085500546573746520454550524F4D2045585495
:010865000092
:09086600546573742052544300E0
:10086F005465737420454550524F4D2045585400E0
:020000040030CA
:0D000100021F1EFF8381FF0FC00FE00F40A4
:00000001FF
